{
  "contractName": "Eber",
  "abi": [
    {
      "constant": true,
      "inputs": [],
      "name": "currentState",
      "outputs": [
        {
          "name": "",
          "type": "uint8"
        }
      ],
      "payable": false,
      "stateMutability": "view",
      "type": "function"
    },
    {
      "constant": true,
      "inputs": [
        {
          "name": "",
          "type": "address"
        }
      ],
      "name": "balances",
      "outputs": [
        {
          "name": "",
          "type": "uint256"
        }
      ],
      "payable": false,
      "stateMutability": "view",
      "type": "function"
    },
    {
      "constant": true,
      "inputs": [],
      "name": "customer",
      "outputs": [
        {
          "name": "",
          "type": "address"
        }
      ],
      "payable": false,
      "stateMutability": "view",
      "type": "function"
    },
    {
      "constant": true,
      "inputs": [],
      "name": "driver",
      "outputs": [
        {
          "name": "",
          "type": "address"
        }
      ],
      "payable": false,
      "stateMutability": "view",
      "type": "function"
    },
    {
      "constant": true,
      "inputs": [],
      "name": "arbiter",
      "outputs": [
        {
          "name": "",
          "type": "address"
        }
      ],
      "payable": false,
      "stateMutability": "view",
      "type": "function"
    },
    {
      "inputs": [
        {
          "name": "_customer",
          "type": "address"
        },
        {
          "name": "_driver",
          "type": "address"
        },
        {
          "name": "_arbiter",
          "type": "address"
        }
      ],
      "payable": false,
      "stateMutability": "nonpayable",
      "type": "constructor"
    },
    {
      "constant": false,
      "inputs": [
        {
          "name": "amount",
          "type": "uint256"
        }
      ],
      "name": "bookCab",
      "outputs": [
        {
          "name": "",
          "type": "bool"
        }
      ],
      "payable": false,
      "stateMutability": "nonpayable",
      "type": "function"
    },
    {
      "constant": false,
      "inputs": [],
      "name": "assignDriver",
      "outputs": [],
      "payable": false,
      "stateMutability": "nonpayable",
      "type": "function"
    },
    {
      "constant": false,
      "inputs": [],
      "name": "startRide",
      "outputs": [],
      "payable": false,
      "stateMutability": "nonpayable",
      "type": "function"
    },
    {
      "constant": false,
      "inputs": [],
      "name": "completeTransaction",
      "outputs": [
        {
          "name": "",
          "type": "bool"
        }
      ],
      "payable": false,
      "stateMutability": "nonpayable",
      "type": "function"
    },
    {
      "constant": false,
      "inputs": [],
      "name": "cancelRideByCustomer",
      "outputs": [],
      "payable": false,
      "stateMutability": "nonpayable",
      "type": "function"
    },
    {
      "constant": false,
      "inputs": [],
      "name": "cancelRideByDriver",
      "outputs": [],
      "payable": false,
      "stateMutability": "nonpayable",
      "type": "function"
    },
    {
      "constant": false,
      "inputs": [
        {
          "name": "amount",
          "type": "uint256"
        },
        {
          "name": "entity",
          "type": "address"
        }
      ],
      "name": "addBalance",
      "outputs": [],
      "payable": false,
      "stateMutability": "nonpayable",
      "type": "function"
    },
    {
      "constant": false,
      "inputs": [
        {
          "name": "c",
          "type": "address"
        }
      ],
      "name": "setCustomer",
      "outputs": [],
      "payable": false,
      "stateMutability": "nonpayable",
      "type": "function"
    },
    {
      "constant": false,
      "inputs": [
        {
          "name": "d",
          "type": "address"
        }
      ],
      "name": "setDriver",
      "outputs": [],
      "payable": false,
      "stateMutability": "nonpayable",
      "type": "function"
    },
    {
      "constant": false,
      "inputs": [
        {
          "name": "a",
          "type": "address"
        }
      ],
      "name": "setArbiter",
      "outputs": [],
      "payable": false,
      "stateMutability": "nonpayable",
      "type": "function"
    },
    {
      "constant": false,
      "inputs": [],
      "name": "resetState",
      "outputs": [],
      "payable": false,
      "stateMutability": "nonpayable",
      "type": "function"
    }
  ],
  "bytecode": "0x6060604052341561000f57600080fd5b6040516060806110c78339810160405280805190602001909190805190602001909190805190602001909190505082600260006101000a81548173ffffffffffffffffffffffffffffffffffffffff021916908373ffffffffffffffffffffffffffffffffffffffff16021790555081600360006101000a81548173ffffffffffffffffffffffffffffffffffffffff021916908373ffffffffffffffffffffffffffffffffffffffff16021790555080600460006101000a81548173ffffffffffffffffffffffffffffffffffffffff021916908373ffffffffffffffffffffffffffffffffffffffff160217905550505050610fb5806101126000396000f3006060604052600436106100e6576000357c0100000000000000000000000000000000000000000000000000000000900463ffffffff1680630c3f6acf146100eb5780631c9c088a1461012257806327e235e31461015b5780632804b2c0146101a8578063620c0c4b146101fd5780636ecc5d62146102365780637b71993b1461028b5780637c45a5f7146102a05780637ec8a332146102b5578063b3071fbd146102ca578063b3ae1d2c146102df578063b74ffca71461030c578063bdb093bf14610347578063f9e19fa514610389578063fc1df4421461039e578063fe25e00a146103d7575b600080fd5b34156100f657600080fd5b6100fe61042c565b6040518082600481111561010e57fe5b60ff16815260200191505060405180910390f35b341561012d57600080fd5b610159600480803573ffffffffffffffffffffffffffffffffffffffff1690602001909190505061043e565b005b341561016657600080fd5b610192600480803573ffffffffffffffffffffffffffffffffffffffff16906020019091905050610482565b6040518082815260200191505060405180910390f35b34156101b357600080fd5b6101bb61049a565b604051808273ffffffffffffffffffffffffffffffffffffffff1673ffffffffffffffffffffffffffffffffffffffff16815260200191505060405180910390f35b341561020857600080fd5b610234600480803573ffffffffffffffffffffffffffffffffffffffff169060200190919050506104c0565b005b341561024157600080fd5b610249610504565b604051808273ffffffffffffffffffffffffffffffffffffffff1673ffffffffffffffffffffffffffffffffffffffff16815260200191505060405180910390f35b341561029657600080fd5b61029e61052a565b005b34156102ab57600080fd5b6102b361074c565b005b34156102c057600080fd5b6102c8610802565b005b34156102d557600080fd5b6102dd6108b8565b005b34156102ea57600080fd5b6102f2610aa5565b604051808215151515815260200191505060405180910390f35b341561031757600080fd5b61032d6004808035906020019091905050610c99565b604051808215151515815260200191505060405180910390f35b341561035257600080fd5b610387600480803590602001909190803573ffffffffffffffffffffffffffffffffffffffff16906020019091905050610ea9565b005b341561039457600080fd5b61039c610efa565b005b34156103a957600080fd5b6103d5600480803573ffffffffffffffffffffffffffffffffffffffff16906020019091905050610f1f565b005b34156103e257600080fd5b6103ea610f63565b604051808273ffffffffffffffffffffffffffffffffffffffff1673ffffffffffffffffffffffffffffffffffffffff16815260200191505060405180910390f35b6000809054906101000a900460ff1681565b80600460006101000a81548173ffffffffffffffffffffffffffffffffffffffff021916908373ffffffffffffffffffffffffffffffffffffffff16021790555050565b60016020528060005260406000206000915090505481565b600260009054906101000a900473ffffffffffffffffffffffffffffffffffffffff1681565b80600260006101000a81548173ffffffffffffffffffffffffffffffffffffffff021916908373ffffffffffffffffffffffffffffffffffffffff16021790555050565b600360009054906101000a900473ffffffffffffffffffffffffffffffffffffffff1681565b600260009054906101000a900473ffffffffffffffffffffffffffffffffffffffff1673ffffffffffffffffffffffffffffffffffffffff163373ffffffffffffffffffffffffffffffffffffffff1614151561058657600080fd5b600180600481111561059457fe5b6000809054906101000a900460ff1660048111156105ae57fe5b1415156105ba57600080fd5b60028060048111156105c857fe5b6000809054906101000a900460ff1660048111156105e257fe5b1415156105ee57600080fd5b60008060006101000a81548160ff0219169083600481111561060c57fe5b021790555060016000600460009054906101000a900473ffffffffffffffffffffffffffffffffffffffff1673ffffffffffffffffffffffffffffffffffffffff1673ffffffffffffffffffffffffffffffffffffffff1681526020019081526020016000205460016000600260009054906101000a900473ffffffffffffffffffffffffffffffffffffffff1673ffffffffffffffffffffffffffffffffffffffff1673ffffffffffffffffffffffffffffffffffffffff16815260200190815260200160002060008282540192505081905550600060016000600460009054906101000a900473ffffffffffffffffffffffffffffffffffffffff1673ffffffffffffffffffffffffffffffffffffffff1673ffffffffffffffffffffffffffffffffffffffff168152602001908152602001600020819055505050565b600460009054906101000a900473ffffffffffffffffffffffffffffffffffffffff1673ffffffffffffffffffffffffffffffffffffffff163373ffffffffffffffffffffffffffffffffffffffff161415156107a857600080fd5b60018060048111156107b657fe5b6000809054906101000a900460ff1660048111156107d057fe5b1415156107dc57600080fd5b60026000806101000a81548160ff021916908360048111156107fa57fe5b021790555050565b600360009054906101000a900473ffffffffffffffffffffffffffffffffffffffff1673ffffffffffffffffffffffffffffffffffffffff163373ffffffffffffffffffffffffffffffffffffffff1614151561085e57600080fd5b600280600481111561086c57fe5b6000809054906101000a900460ff16600481111561088657fe5b14151561089257600080fd5b60036000806101000a81548160ff021916908360048111156108b057fe5b021790555050565b600360009054906101000a900473ffffffffffffffffffffffffffffffffffffffff1673ffffffffffffffffffffffffffffffffffffffff163373ffffffffffffffffffffffffffffffffffffffff1614151561091457600080fd5b600280600481111561092257fe5b6000809054906101000a900460ff16600481111561093c57fe5b14151561094857600080fd5b60008060006101000a81548160ff0219169083600481111561096657fe5b021790555060016000600460009054906101000a900473ffffffffffffffffffffffffffffffffffffffff1673ffffffffffffffffffffffffffffffffffffffff1673ffffffffffffffffffffffffffffffffffffffff1681526020019081526020016000205460016000600260009054906101000a900473ffffffffffffffffffffffffffffffffffffffff1673ffffffffffffffffffffffffffffffffffffffff1673ffffffffffffffffffffffffffffffffffffffff16815260200190815260200160002060008282540192505081905550600060016000600460009054906101000a900473ffffffffffffffffffffffffffffffffffffffff1673ffffffffffffffffffffffffffffffffffffffff1673ffffffffffffffffffffffffffffffffffffffff1681526020019081526020016000208190555050565b6000600460009054906101000a900473ffffffffffffffffffffffffffffffffffffffff1673ffffffffffffffffffffffffffffffffffffffff163373ffffffffffffffffffffffffffffffffffffffff16141515610b0357600080fd5b6003806004811115610b1157fe5b6000809054906101000a900460ff166004811115610b2b57fe5b141515610b3757600080fd5b60016000600460009054906101000a900473ffffffffffffffffffffffffffffffffffffffff1673ffffffffffffffffffffffffffffffffffffffff1673ffffffffffffffffffffffffffffffffffffffff1681526020019081526020016000205460016000600360009054906101000a900473ffffffffffffffffffffffffffffffffffffffff1673ffffffffffffffffffffffffffffffffffffffff1673ffffffffffffffffffffffffffffffffffffffff16815260200190815260200160002060008282540192505081905550600060016000600460009054906101000a900473ffffffffffffffffffffffffffffffffffffffff1673ffffffffffffffffffffffffffffffffffffffff1673ffffffffffffffffffffffffffffffffffffffff1681526020019081526020016000208190555060046000806101000a81548160ff02191690836004811115610c8c57fe5b0217905550600191505090565b6000600260009054906101000a900473ffffffffffffffffffffffffffffffffffffffff1673ffffffffffffffffffffffffffffffffffffffff163373ffffffffffffffffffffffffffffffffffffffff16141515610cf757600080fd5b6000806004811115610d0557fe5b6000809054906101000a900460ff166004811115610d1f57fe5b141515610d2b57600080fd5b8260016000600260009054906101000a900473ffffffffffffffffffffffffffffffffffffffff1673ffffffffffffffffffffffffffffffffffffffff1673ffffffffffffffffffffffffffffffffffffffff168152602001908152602001600020541015610d9d5760009150610ea3565b60016000806101000a81548160ff02191690836004811115610dbb57fe5b02179055508260016000600460009054906101000a900473ffffffffffffffffffffffffffffffffffffffff1673ffffffffffffffffffffffffffffffffffffffff1673ffffffffffffffffffffffffffffffffffffffff168152602001908152602001600020600082825401925050819055508260016000600260009054906101000a900473ffffffffffffffffffffffffffffffffffffffff1673ffffffffffffffffffffffffffffffffffffffff1673ffffffffffffffffffffffffffffffffffffffff16815260200190815260200160002060008282540392505081905550600191505b50919050565b81600160008373ffffffffffffffffffffffffffffffffffffffff1673ffffffffffffffffffffffffffffffffffffffff168152602001908152602001600020600082825401925050819055505050565b60008060006101000a81548160ff02191690836004811115610f1857fe5b0217905550565b80600360006101000a81548173ffffffffffffffffffffffffffffffffffffffff021916908373ffffffffffffffffffffffffffffffffffffffff16021790555050565b600460009054906101000a900473ffffffffffffffffffffffffffffffffffffffff16815600a165627a7a723058209dfc5aca85f8764482fe2f320e2149e0d2e0bfb4581dfbab3a0e77783c361c6f0029",
  "source": "pragma solidity ^0.4.0;\n\n/*\nSimple escrow contract that mediates disputes using a trusted arbiter\n*/\ncontract Eber {\n\n    enum State {IDLE, FINDING_DRIVER, DRIVER_ASSIGNED, AWAITING_DESTINATION, COMPLETE}\n    State public currentState;\n    mapping (address => uint) public balances;\n\n    modifier customerOnly() { require(msg.sender == customer); _; }\n    modifier driverOnly() { require(msg.sender == driver); _; }\n    modifier arbiterOnly() { require(msg.sender == arbiter); _; }\n    modifier inState(State expectedState) { require(currentState == expectedState); _; }\n\n    address public customer;\n    address public driver;\n    address public arbiter;\n\n    function Eber(address _customer, address _driver, address _arbiter) public {\n        customer = _customer;\n        driver = _driver;\n        arbiter = _arbiter;\n    }\n\n    function bookCab(uint amount) customerOnly inState(State.IDLE) public returns(bool) {\n        if(balances[customer] < amount) {\n            return false;\n        }\n        currentState = State.FINDING_DRIVER;\n        balances[arbiter] += amount;\n        balances[customer] -= amount;\n        return true;\n    }\n\n    function assignDriver() arbiterOnly inState(State.FINDING_DRIVER) public {\n        currentState = State.DRIVER_ASSIGNED;\n    }\n\n    function startRide() driverOnly inState(State.DRIVER_ASSIGNED) public {\n        currentState = State.AWAITING_DESTINATION;\n    }\n\n    function completeTransaction() arbiterOnly inState(State.AWAITING_DESTINATION) public returns (bool) {\n        balances[driver] += balances[arbiter];\n        balances[arbiter] = 0;\n        currentState = State.COMPLETE;\n        return true;\n    }\n\n    function cancelRideByCustomer() customerOnly inState(State.FINDING_DRIVER) inState(State.DRIVER_ASSIGNED) public {\n        currentState = State.IDLE;\n        balances[customer] += balances[arbiter];\n        balances[arbiter] = 0;\n    }\n\n    function cancelRideByDriver() driverOnly inState(State.DRIVER_ASSIGNED) public{\n        currentState = State.IDLE;\n        balances[customer] += balances[arbiter];\n        balances[arbiter] = 0;\n    }\n\n    function addBalance(uint amount, address entity) public {\n        balances[entity] += amount;\n    }\n\n    function setCustomer(address c) public {\n        customer = c;\n    }\n\n    function setDriver(address d) public {\n        driver = d;\n    }\n\n    function setArbiter(address a) public {\n        arbiter = a;\n    }\n\n    function resetState() public {\n        currentState = State.IDLE;\n    }\n}\n",
  "sourcePath": "/Users/rohan/Documents/sbu/courses/523/Backend/CSE_523_4HorseMen/Backend/contracts/Eber.sol",
  "compiler": {
    "name": "solc",
    "version": "0.4.19+commit.c4cbbb05.Emscripten.clang"
  },
  "schemaVersion": "2.0.0",
  "updatedAt": "2018-04-18T19:50:06.550Z"
}